{
  "contractName": "FamilyFeudPoll",
  "abi": [
    {
      "constant": true,
      "inputs": [
        {
          "internalType": "uint256",
          "name": "",
          "type": "uint256"
        }
      ],
      "name": "questions",
      "outputs": [
        {
          "internalType": "string",
          "name": "",
          "type": "string"
        }
      ],
      "payable": false,
      "stateMutability": "view",
      "type": "function"
    },
    {
      "constant": false,
      "inputs": [
        {
          "internalType": "string",
          "name": "question",
          "type": "string"
        }
      ],
      "name": "submitQuestion",
      "outputs": [],
      "payable": false,
      "stateMutability": "nonpayable",
      "type": "function"
    },
    {
      "constant": true,
      "inputs": [],
      "name": "getQuestions",
      "outputs": [
        {
          "internalType": "string[]",
          "name": "",
          "type": "string[]"
        }
      ],
      "payable": false,
      "stateMutability": "view",
      "type": "function"
    }
  ],
  "bytecode": "0x608060405234801561001057600080fd5b50610657806100206000396000f3fe608060405234801561001057600080fd5b50600436106100415760003560e01c8063099ee6f21461004657806331b1b9781461006257806397221ab714610092575b600080fd5b610060600480360361005b919081019061039c565b6100b0565b005b61007c600480360361007791908101906103e1565b6100f6565b6040516100899190610527565b60405180910390f35b61009a6101af565b6040516100a79190610505565b60405180910390f35b60008282909180600181540180825580915050906001820390600052602060002001600090919293909192939091929091925091906100f0929190610298565b50505050565b6000818154811061010357fe5b906000526020600020016000915090508054600181600116156101000203166002900480601f0160208091040260200160405190810160405280929190818152602001828054600181600116156101000203166002900480156101a75780601f1061017c576101008083540402835291602001916101a7565b820191906000526020600020905b81548152906001019060200180831161018a57829003601f168201915b505050505081565b60606000805480602002602001604051908101604052809291908181526020016000905b8282101561028f578382906000526020600020018054600181600116156101000203166002900480601f01602080910402602001604051908101604052809291908181526020018280546001816001161561010002031660029004801561027b5780601f106102505761010080835404028352916020019161027b565b820191906000526020600020905b81548152906001019060200180831161025e57829003601f168201915b5050505050815260200190600101906101d3565b50505050905090565b828054600181600116156101000203166002900490600052602060002090601f016020900481019282601f106102d957803560ff1916838001178555610307565b82800160010185558215610307579182015b828111156103065782358255916020019190600101906102eb565b5b5090506103149190610318565b5090565b61033a91905b8082111561033657600081600090555060010161031e565b5090565b90565b60008083601f84011261034f57600080fd5b8235905067ffffffffffffffff81111561036857600080fd5b60208301915083600182028301111561038057600080fd5b9250929050565b600081359050610396816105fd565b92915050565b600080602083850312156103af57600080fd5b600083013567ffffffffffffffff8111156103c957600080fd5b6103d58582860161033d565b92509250509250929050565b6000602082840312156103f357600080fd5b600061040184828501610387565b91505092915050565b60006104168383610493565b905092915050565b600061042982610559565b610433818561057c565b93508360208202850161044585610549565b8060005b858110156104815784840389528151610462858261040a565b945061046d8361056f565b925060208a01995050600181019050610449565b50829750879550505050505092915050565b600061049e82610564565b6104a8818561058d565b93506104b88185602086016105b9565b6104c1816105ec565b840191505092915050565b60006104d782610564565b6104e1818561059e565b93506104f18185602086016105b9565b6104fa816105ec565b840191505092915050565b6000602082019050818103600083015261051f818461041e565b905092915050565b6000602082019050818103600083015261054181846104cc565b905092915050565b6000819050602082019050919050565b600081519050919050565b600081519050919050565b6000602082019050919050565b600082825260208201905092915050565b600082825260208201905092915050565b600082825260208201905092915050565b6000819050919050565b60005b838110156105d75780820151818401526020810190506105bc565b838111156105e6576000848401525b50505050565b6000601f19601f8301169050919050565b610606816105af565b811461061157600080fd5b5056fea365627a7a7231582066a7a4bf520af069926f0dc01377b6024bff0125473985ccbfcf7eaa664659e36c6578706572696d656e74616cf564736f6c63430005100040",
  "source": "// SPDX-License-Identifier: MIT\npragma solidity >=0.4.22 <0.9.0;\npragma experimental ABIEncoderV2;\n\ncontract FamilyFeudPoll {\n  \n  string[] public questions;\n\n  function submitQuestion(string calldata question) external {\n    questions.push(question);\n  }\n\n  function getQuestions() external view returns (string[] memory) {\n    return questions;\n  }\n\n}\n",
  "sourcePath": "/Users/jlynch/Git-Projects/Decentralized-Family-Feud-Poll/contracts/FamilyFeudPoll.sol",
  "compiler": {
    "name": "solc",
    "version": "0.5.16+commit.9c3226ce.Emscripten.clang"
  },
  "schemaVersion": "3.4.1",
  "updatedAt": "2021-09-17T23:26:34.820Z",
  "devdoc": {
    "methods": {}
  },
  "userdoc": {
    "methods": {}
  }
}